{
  "contractName": "product",
  "abi": [
    {
      "inputs": [
        {
          "internalType": "bytes32",
          "name": "",
          "type": "bytes32"
        }
      ],
      "name": "productHerbMetadata",
      "outputs": [
        {
          "internalType": "bytes32",
          "name": "harvestDate",
          "type": "bytes32"
        },
        {
          "internalType": "bytes32",
          "name": "originLocation",
          "type": "bytes32"
        },
        {
          "internalType": "bytes32",
          "name": "farmId",
          "type": "bytes32"
        },
        {
          "internalType": "bytes32",
          "name": "certification",
          "type": "bytes32"
        }
      ],
      "stateMutability": "view",
      "type": "function",
      "constant": true
    },
    {
      "inputs": [
        {
          "internalType": "uint256",
          "name": "",
          "type": "uint256"
        }
      ],
      "name": "productItems",
      "outputs": [
        {
          "internalType": "uint256",
          "name": "productId",
          "type": "uint256"
        },
        {
          "internalType": "bytes32",
          "name": "productSN",
          "type": "bytes32"
        },
        {
          "internalType": "bytes32",
          "name": "productName",
          "type": "bytes32"
        },
        {
          "internalType": "bytes32",
          "name": "productBrand",
          "type": "bytes32"
        },
        {
          "internalType": "uint256",
          "name": "productPrice",
          "type": "uint256"
        },
        {
          "internalType": "bytes32",
          "name": "productStatus",
          "type": "bytes32"
        }
      ],
      "stateMutability": "view",
      "type": "function",
      "constant": true
    },
    {
      "inputs": [
        {
          "internalType": "bytes32",
          "name": "",
          "type": "bytes32"
        }
      ],
      "name": "productMap",
      "outputs": [
        {
          "internalType": "uint256",
          "name": "",
          "type": "uint256"
        }
      ],
      "stateMutability": "view",
      "type": "function",
      "constant": true
    },
    {
      "inputs": [
        {
          "internalType": "bytes32",
          "name": "",
          "type": "bytes32"
        }
      ],
      "name": "productsForSale",
      "outputs": [
        {
          "internalType": "bytes32",
          "name": "",
          "type": "bytes32"
        }
      ],
      "stateMutability": "view",
      "type": "function",
      "constant": true
    },
    {
      "inputs": [
        {
          "internalType": "bytes32",
          "name": "",
          "type": "bytes32"
        }
      ],
      "name": "productsManufactured",
      "outputs": [
        {
          "internalType": "bytes32",
          "name": "",
          "type": "bytes32"
        }
      ],
      "stateMutability": "view",
      "type": "function",
      "constant": true
    },
    {
      "inputs": [
        {
          "internalType": "bytes32",
          "name": "",
          "type": "bytes32"
        }
      ],
      "name": "productsSold",
      "outputs": [
        {
          "internalType": "bytes32",
          "name": "",
          "type": "bytes32"
        }
      ],
      "stateMutability": "view",
      "type": "function",
      "constant": true
    },
    {
      "inputs": [
        {
          "internalType": "bytes32",
          "name": "",
          "type": "bytes32"
        },
        {
          "internalType": "uint256",
          "name": "",
          "type": "uint256"
        }
      ],
      "name": "productsWithConsumer",
      "outputs": [
        {
          "internalType": "bytes32",
          "name": "",
          "type": "bytes32"
        }
      ],
      "stateMutability": "view",
      "type": "function",
      "constant": true
    },
    {
      "inputs": [
        {
          "internalType": "bytes32",
          "name": "",
          "type": "bytes32"
        },
        {
          "internalType": "uint256",
          "name": "",
          "type": "uint256"
        }
      ],
      "name": "productsWithSeller",
      "outputs": [
        {
          "internalType": "bytes32",
          "name": "",
          "type": "bytes32"
        }
      ],
      "stateMutability": "view",
      "type": "function",
      "constant": true
    },
    {
      "inputs": [
        {
          "internalType": "uint256",
          "name": "",
          "type": "uint256"
        }
      ],
      "name": "sellers",
      "outputs": [
        {
          "internalType": "uint256",
          "name": "sellerId",
          "type": "uint256"
        },
        {
          "internalType": "bytes32",
          "name": "sellerName",
          "type": "bytes32"
        },
        {
          "internalType": "bytes32",
          "name": "sellerBrand",
          "type": "bytes32"
        },
        {
          "internalType": "bytes32",
          "name": "sellerCode",
          "type": "bytes32"
        },
        {
          "internalType": "uint256",
          "name": "sellerNum",
          "type": "uint256"
        },
        {
          "internalType": "bytes32",
          "name": "sellerManager",
          "type": "bytes32"
        },
        {
          "internalType": "bytes32",
          "name": "sellerAddress",
          "type": "bytes32"
        }
      ],
      "stateMutability": "view",
      "type": "function",
      "constant": true
    },
    {
      "inputs": [
        {
          "internalType": "bytes32",
          "name": "",
          "type": "bytes32"
        },
        {
          "internalType": "uint256",
          "name": "",
          "type": "uint256"
        }
      ],
      "name": "sellersWithManufacturer",
      "outputs": [
        {
          "internalType": "bytes32",
          "name": "",
          "type": "bytes32"
        }
      ],
      "stateMutability": "view",
      "type": "function",
      "constant": true
    },
    {
      "inputs": [
        {
          "internalType": "bytes32",
          "name": "_manufacturerId",
          "type": "bytes32"
        },
        {
          "internalType": "bytes32",
          "name": "_sellerName",
          "type": "bytes32"
        },
        {
          "internalType": "bytes32",
          "name": "_sellerBrand",
          "type": "bytes32"
        },
        {
          "internalType": "bytes32",
          "name": "_sellerCode",
          "type": "bytes32"
        },
        {
          "internalType": "uint256",
          "name": "_sellerNum",
          "type": "uint256"
        },
        {
          "internalType": "bytes32",
          "name": "_sellerManager",
          "type": "bytes32"
        },
        {
          "internalType": "bytes32",
          "name": "_sellerAddress",
          "type": "bytes32"
        }
      ],
      "name": "addSeller",
      "outputs": [],
      "stateMutability": "nonpayable",
      "type": "function"
    },
    {
      "inputs": [],
      "name": "viewSellers",
      "outputs": [
        {
          "internalType": "uint256[]",
          "name": "",
          "type": "uint256[]"
        },
        {
          "internalType": "bytes32[]",
          "name": "",
          "type": "bytes32[]"
        },
        {
          "internalType": "bytes32[]",
          "name": "",
          "type": "bytes32[]"
        },
        {
          "internalType": "bytes32[]",
          "name": "",
          "type": "bytes32[]"
        },
        {
          "internalType": "uint256[]",
          "name": "",
          "type": "uint256[]"
        },
        {
          "internalType": "bytes32[]",
          "name": "",
          "type": "bytes32[]"
        },
        {
          "internalType": "bytes32[]",
          "name": "",
          "type": "bytes32[]"
        }
      ],
      "stateMutability": "view",
      "type": "function",
      "constant": true
    },
    {
      "inputs": [
        {
          "internalType": "bytes32",
          "name": "_manufactuerID",
          "type": "bytes32"
        },
        {
          "internalType": "bytes32",
          "name": "_productName",
          "type": "bytes32"
        },
        {
          "internalType": "bytes32",
          "name": "_productSN",
          "type": "bytes32"
        },
        {
          "internalType": "bytes32",
          "name": "_productBrand",
          "type": "bytes32"
        },
        {
          "internalType": "uint256",
          "name": "_productPrice",
          "type": "uint256"
        }
      ],
      "name": "addProduct",
      "outputs": [],
      "stateMutability": "nonpayable",
      "type": "function"
    },
    {
      "inputs": [
        {
          "internalType": "bytes32",
          "name": "_productSN",
          "type": "bytes32"
        },
        {
          "internalType": "bytes32",
          "name": "_harvestDate",
          "type": "bytes32"
        },
        {
          "internalType": "bytes32",
          "name": "_originLocation",
          "type": "bytes32"
        },
        {
          "internalType": "bytes32",
          "name": "_farmId",
          "type": "bytes32"
        },
        {
          "internalType": "bytes32",
          "name": "_certification",
          "type": "bytes32"
        }
      ],
      "name": "setHerbMetadata",
      "outputs": [],
      "stateMutability": "nonpayable",
      "type": "function"
    },
    {
      "inputs": [
        {
          "internalType": "bytes32",
          "name": "_productSN",
          "type": "bytes32"
        }
      ],
      "name": "getHerbMetadata",
      "outputs": [
        {
          "internalType": "bytes32",
          "name": "",
          "type": "bytes32"
        },
        {
          "internalType": "bytes32",
          "name": "",
          "type": "bytes32"
        },
        {
          "internalType": "bytes32",
          "name": "",
          "type": "bytes32"
        },
        {
          "internalType": "bytes32",
          "name": "",
          "type": "bytes32"
        }
      ],
      "stateMutability": "view",
      "type": "function",
      "constant": true
    },
    {
      "inputs": [],
      "name": "viewProductItems",
      "outputs": [
        {
          "internalType": "uint256[]",
          "name": "",
          "type": "uint256[]"
        },
        {
          "internalType": "bytes32[]",
          "name": "",
          "type": "bytes32[]"
        },
        {
          "internalType": "bytes32[]",
          "name": "",
          "type": "bytes32[]"
        },
        {
          "internalType": "bytes32[]",
          "name": "",
          "type": "bytes32[]"
        },
        {
          "internalType": "uint256[]",
          "name": "",
          "type": "uint256[]"
        },
        {
          "internalType": "bytes32[]",
          "name": "",
          "type": "bytes32[]"
        }
      ],
      "stateMutability": "view",
      "type": "function",
      "constant": true
    },
    {
      "inputs": [
        {
          "internalType": "bytes32",
          "name": "_productSN",
          "type": "bytes32"
        },
        {
          "internalType": "bytes32",
          "name": "_sellerCode",
          "type": "bytes32"
        }
      ],
      "name": "manufacturerSellProduct",
      "outputs": [],
      "stateMutability": "nonpayable",
      "type": "function"
    },
    {
      "inputs": [
        {
          "internalType": "bytes32",
          "name": "_productSN",
          "type": "bytes32"
        },
        {
          "internalType": "bytes32",
          "name": "_consumerCode",
          "type": "bytes32"
        }
      ],
      "name": "sellerSellProduct",
      "outputs": [],
      "stateMutability": "nonpayable",
      "type": "function"
    },
    {
      "inputs": [
        {
          "internalType": "bytes32",
          "name": "_sellerCode",
          "type": "bytes32"
        }
      ],
      "name": "queryProductsList",
      "outputs": [
        {
          "internalType": "uint256[]",
          "name": "",
          "type": "uint256[]"
        },
        {
          "internalType": "bytes32[]",
          "name": "",
          "type": "bytes32[]"
        },
        {
          "internalType": "bytes32[]",
          "name": "",
          "type": "bytes32[]"
        },
        {
          "internalType": "bytes32[]",
          "name": "",
          "type": "bytes32[]"
        },
        {
          "internalType": "uint256[]",
          "name": "",
          "type": "uint256[]"
        },
        {
          "internalType": "bytes32[]",
          "name": "",
          "type": "bytes32[]"
        }
      ],
      "stateMutability": "view",
      "type": "function",
      "constant": true
    },
    {
      "inputs": [
        {
          "internalType": "bytes32",
          "name": "_manufacturerCode",
          "type": "bytes32"
        }
      ],
      "name": "querySellersList",
      "outputs": [
        {
          "internalType": "uint256[]",
          "name": "",
          "type": "uint256[]"
        },
        {
          "internalType": "bytes32[]",
          "name": "",
          "type": "bytes32[]"
        },
        {
          "internalType": "bytes32[]",
          "name": "",
          "type": "bytes32[]"
        },
        {
          "internalType": "bytes32[]",
          "name": "",
          "type": "bytes32[]"
        },
        {
          "internalType": "uint256[]",
          "name": "",
          "type": "uint256[]"
        },
        {
          "internalType": "bytes32[]",
          "name": "",
          "type": "bytes32[]"
        },
        {
          "internalType": "bytes32[]",
          "name": "",
          "type": "bytes32[]"
        }
      ],
      "stateMutability": "view",
      "type": "function",
      "constant": true
    },
    {
      "inputs": [
        {
          "internalType": "bytes32",
          "name": "_consumerCode",
          "type": "bytes32"
        }
      ],
      "name": "getPurchaseHistory",
      "outputs": [
        {
          "internalType": "bytes32[]",
          "name": "",
          "type": "bytes32[]"
        },
        {
          "internalType": "bytes32[]",
          "name": "",
          "type": "bytes32[]"
        },
        {
          "internalType": "bytes32[]",
          "name": "",
          "type": "bytes32[]"
        }
      ],
      "stateMutability": "view",
      "type": "function",
      "constant": true
    },
    {
      "inputs": [
        {
          "internalType": "bytes32",
          "name": "_productSN",
          "type": "bytes32"
        },
        {
          "internalType": "bytes32",
          "name": "_consumerCode",
          "type": "bytes32"
        }
      ],
      "name": "verifyProduct",
      "outputs": [
        {
          "internalType": "bool",
          "name": "",
          "type": "bool"
        }
      ],
      "stateMutability": "view",
      "type": "function",
      "constant": true
    }
  ],
  "bytecode": "0x608060405234801561001057600080fd5b506125ba806100206000396000f3fe608060405234801561001057600080fd5b50600436106101425760003560e01c806392e3e323116100b8578063b0c7ad941161007c578063b0c7ad94146103f1578063c20805b41461040d578063caaf27511461043d578063cd4f6a2e14610472578063cee26ed5146104a2578063e262113f146104d857610142565b806392e3e323146103105780639316bff0146103435780639cd777dd1461035f5780639ea4695d1461038f578063a090f47c146103c157610142565b80631b3658c81161010a5780631b3658c814610210578063344b5d511461022c5780634b9930011461025c5780638577a7011461028c5780639042d1de146102a857806392162bc4146102db57610142565b8063032f95e614610147578063100b6ba21461016b578063130aa81f1461019b5780631344b138146101d15780631836bd4b146101ed575b600080fd5b61014f610508565b6040516101629796959493929190611ec9565b60405180910390f35b61018560048036038101906101809190611f9a565b6108f5565b6040516101929190611fd6565b60405180910390f35b6101b560048036038101906101b09190611f9a565b61090d565b6040516101c89796959493929190611ec9565b60405180910390f35b6101eb60048036038101906101e69190611ff1565b610dd0565b005b6101f5610e36565b6040516102079695949392919061206c565b60405180910390f35b61022a60048036038101906102259190612123565b61119e565b005b610246600480360381019061024191906121c5565b61128a565b6040516102539190612220565b60405180910390f35b6102766004803603810190610271919061223b565b6112bb565b604051610283919061228a565b60405180910390f35b6102a660048036038101906102a191906121c5565b6112ec565b005b6102c260048036038101906102bd9190611f9a565b611342565b6040516102d294939291906122a5565b60405180910390f35b6102f560048036038101906102f09190611f9a565b611372565b6040516103079695949392919061206c565b60405180910390f35b61032a60048036038101906103259190611f9a565b6117ab565b60405161033a94939291906122a5565b60405180910390f35b61035d600480360381019061035891906122ea565b61181f565b005b6103796004803603810190610374919061223b565b611913565b604051610386919061228a565b60405180910390f35b6103a960048036038101906103a49190611f9a565b611944565b6040516103b893929190612365565b60405180910390f35b6103db60048036038101906103d69190611f9a565b611b18565b6040516103e8919061228a565b60405180910390f35b61040b600480360381019061040691906121c5565b611b30565b005b61042760048036038101906104229190611f9a565b611c5a565b604051610434919061228a565b60405180910390f35b610457600480360381019061045291906123b1565b611c72565b604051610469969594939291906123de565b60405180910390f35b61048c60048036038101906104879190611f9a565b611cae565b604051610499919061228a565b60405180910390f35b6104bc60048036038101906104b791906123b1565b611cc6565b6040516104cf979695949392919061243f565b60405180910390f35b6104f260048036038101906104ed919061223b565b611d08565b6040516104ff919061228a565b60405180910390f35b60608060608060608060606000805467ffffffffffffffff8111156105305761052f6124ae565b5b60405190808252806020026020018201604052801561055e5781602001602082028036833780820191505090505b5090506000805467ffffffffffffffff81111561057e5761057d6124ae565b5b6040519080825280602002602001820160405280156105ac5781602001602082028036833780820191505090505b5090506000805467ffffffffffffffff8111156105cc576105cb6124ae565b5b6040519080825280602002602001820160405280156105fa5781602001602082028036833780820191505090505b5090506000805467ffffffffffffffff81111561061a576106196124ae565b5b6040519080825280602002602001820160405280156106485781602001602082028036833780820191505090505b5090506000805467ffffffffffffffff811115610668576106676124ae565b5b6040519080825280602002602001820160405280156106965781602001602082028036833780820191505090505b5090506000805467ffffffffffffffff8111156106b6576106b56124ae565b5b6040519080825280602002602001820160405280156106e45781602001602082028036833780820191505090505b5090506000805467ffffffffffffffff811115610704576107036124ae565b5b6040519080825280602002602001820160405280156107325781602001602082028036833780820191505090505b50905060005b6000548110156108cf57600260008281526020019081526020016000206000015488828151811061076c5761076b6124dd565b5b60200260200101818152505060026000828152602001908152602001600020600101548782815181106107a2576107a16124dd565b5b60200260200101818152505060026000828152602001908152602001600020600201548682815181106107d8576107d76124dd565b5b602002602001018181525050600260008281526020019081526020016000206003015485828151811061080e5761080d6124dd565b5b6020026020010181815250506002600082815260200190815260200160002060040154848281518110610844576108436124dd565b5b602002602001018181525050600260008281526020019081526020016000206005015483828151811061087a576108796124dd565b5b60200260200101818152505060026000828152602001908152602001600020600601548282815181106108b0576108af6124dd565b5b60200260200101818152505080806108c79061253b565b915050610738565b50868686868686869d509d509d509d509d509d509d505050505050505090919293949596565b60046020528060005260406000206000915090505481565b60608060608060608060606000600a60008a815260200190815260200160002080548060200260200160405190810160405280929190818152602001828054801561097757602002820191906000526020600020905b815481526020019060010190808311610963575b50505050509050600080805467ffffffffffffffff81111561099c5761099b6124ae565b5b6040519080825280602002602001820160405280156109ca5781602001602082028036833780820191505090505b5090506000805467ffffffffffffffff8111156109ea576109e96124ae565b5b604051908082528060200260200182016040528015610a185781602001602082028036833780820191505090505b5090506000805467ffffffffffffffff811115610a3857610a376124ae565b5b604051908082528060200260200182016040528015610a665781602001602082028036833780820191505090505b5090506000805467ffffffffffffffff811115610a8657610a856124ae565b5b604051908082528060200260200182016040528015610ab45781602001602082028036833780820191505090505b5090506000805467ffffffffffffffff811115610ad457610ad36124ae565b5b604051908082528060200260200182016040528015610b025781602001602082028036833780820191505090505b5090506000805467ffffffffffffffff811115610b2257610b216124ae565b5b604051908082528060200260200182016040528015610b505781602001602082028036833780820191505090505b5090506000805467ffffffffffffffff811115610b7057610b6f6124ae565b5b604051908082528060200260200182016040528015610b9e5781602001602082028036833780820191505090505b50905060005b600054811015610da65760005b8a51811015610d92578a8181518110610bcd57610bcc6124dd565b5b602002602001015160026000848152602001908152602001600020600301541415610d7f576002600083815260200190815260200160002060000154898b81518110610c1c57610c1b6124dd565b5b6020026020010181815250506002600083815260200190815260200160002060010154888b81518110610c5257610c516124dd565b5b6020026020010181815250506002600083815260200190815260200160002060020154878b81518110610c8857610c876124dd565b5b6020026020010181815250506002600083815260200190815260200160002060030154868b81518110610cbe57610cbd6124dd565b5b6020026020010181815250506002600083815260200190815260200160002060040154858b81518110610cf457610cf36124dd565b5b6020026020010181815250506002600083815260200190815260200160002060050154848b81518110610d2a57610d296124dd565b5b6020026020010181815250506002600083815260200190815260200160002060060154838b81518110610d6057610d5f6124dd565b5b6020026020010181815250508980610d779061253b565b9a5050610d92565b8080610d8a9061253b565b915050610bb1565b508080610d9e9061253b565b915050610ba4565b50868686868686869f509f509f509f509f509f509f50505050505050505050919395979092949650565b604051806080016040528085815260200184815260200183815260200182815250600b6000878152602001908152602001600020600082015181600001556020820151816001015560408201518160020155606082015181600301559050505050505050565b606080606080606080600060015467ffffffffffffffff811115610e5d57610e5c6124ae565b5b604051908082528060200260200182016040528015610e8b5781602001602082028036833780820191505090505b509050600060015467ffffffffffffffff811115610eac57610eab6124ae565b5b604051908082528060200260200182016040528015610eda5781602001602082028036833780820191505090505b509050600060015467ffffffffffffffff811115610efb57610efa6124ae565b5b604051908082528060200260200182016040528015610f295781602001602082028036833780820191505090505b509050600060015467ffffffffffffffff811115610f4a57610f496124ae565b5b604051908082528060200260200182016040528015610f785781602001602082028036833780820191505090505b509050600060015467ffffffffffffffff811115610f9957610f986124ae565b5b604051908082528060200260200182016040528015610fc75781602001602082028036833780820191505090505b509050600060015467ffffffffffffffff811115610fe857610fe76124ae565b5b6040519080825280602002602001820160405280156110165781602001602082028036833780820191505090505b50905060005b60015481101561117d5760036000828152602001908152602001600020600001548782815181106110505761104f6124dd565b5b6020026020010181815250506003600082815260200190815260200160002060010154868281518110611086576110856124dd565b5b60200260200101818152505060036000828152602001908152602001600020600201548582815181106110bc576110bb6124dd565b5b60200260200101818152505060036000828152602001908152602001600020600301548482815181106110f2576110f16124dd565b5b6020026020010181815250506003600082815260200190815260200160002060040154838281518110611128576111276124dd565b5b602002602001018181525050600360008281526020019081526020016000206005015482828151811061115e5761115d6124dd565b5b60200260200101818152505080806111759061253b565b91505061101c565b508585858585859b509b509b509b509b509b50505050505050909192939495565b6040518060e001604052806000548152602001878152602001868152602001858152602001848152602001838152602001828152506002600080548152602001908152602001600020600082015181600001556020820151816001015560408201518160020155606082015181600301556080820151816004015560a0820151816005015560c082015181600601559050506000808154809291906112429061253b565b9190505550600a600088815260200190815260200160002084908060018154018082558091505060019003906000526020600020016000909190919091505550505050505050565b600081600760008581526020019081526020016000205414156112b057600190506112b5565b600090505b92915050565b600860205281600052604060002081815481106112d757600080fd5b90600052602060002001600091509150505481565b600860008281526020019081526020016000208290806001815401808255809150506001900390600052602060002001600090919091909150558060066000848152602001908152602001600020819055505050565b600b6020528060005260406000206000915090508060000154908060010154908060020154908060030154905084565b6060806060806060806000600860008981526020019081526020016000208054806020026020016040519081016040528092919081815260200182805480156113da57602002820191906000526020600020905b8154815260200190600101908083116113c6575b5050505050905060008060015467ffffffffffffffff811115611400576113ff6124ae565b5b60405190808252806020026020018201604052801561142e5781602001602082028036833780820191505090505b509050600060015467ffffffffffffffff81111561144f5761144e6124ae565b5b60405190808252806020026020018201604052801561147d5781602001602082028036833780820191505090505b509050600060015467ffffffffffffffff81111561149e5761149d6124ae565b5b6040519080825280602002602001820160405280156114cc5781602001602082028036833780820191505090505b509050600060015467ffffffffffffffff8111156114ed576114ec6124ae565b5b60405190808252806020026020018201604052801561151b5781602001602082028036833780820191505090505b509050600060015467ffffffffffffffff81111561153c5761153b6124ae565b5b60405190808252806020026020018201604052801561156a5781602001602082028036833780820191505090505b509050600060015467ffffffffffffffff81111561158b5761158a6124ae565b5b6040519080825280602002602001820160405280156115b95781602001602082028036833780820191505090505b50905060005b6001548110156117875760005b8951811015611773578981815181106115e8576115e76124dd565b5b602002602001015160036000848152602001908152602001600020600101541415611760576003600083815260200190815260200160002060000154888a81518110611637576116366124dd565b5b6020026020010181815250506003600083815260200190815260200160002060010154878a8151811061166d5761166c6124dd565b5b6020026020010181815250506003600083815260200190815260200160002060020154868a815181106116a3576116a26124dd565b5b6020026020010181815250506003600083815260200190815260200160002060030154858a815181106116d9576116d86124dd565b5b6020026020010181815250506003600083815260200190815260200160002060040154848a8151811061170f5761170e6124dd565b5b6020026020010181815250506003600083815260200190815260200160002060050154838a81518110611745576117446124dd565b5b602002602001018181525050888061175c9061253b565b9950505b808061176b9061253b565b9150506115cc565b50808061177f9061253b565b9150506115bf565b508585858585859d509d509d509d509d509d50505050505050505091939550919395565b6000806000806000600b6000878152602001908152602001600020604051806080016040529081600082015481526020016001820154815260200160028201548152602001600382015481525050905080600001518160200151826040015183606001519450945094509450509193509193565b6040518060c0016040528060015481526020018481526020018581526020018381526020018281526020017f417661696c61626c650000000000000000000000000000000000000000000000815250600360006001548152602001908152602001600020600082015181600001556020820151816001015560408201518160020155606082015181600301556080820151816004015560a082015181600501559050506001546004600085815260200190815260200160002081905550600160008154809291906118ef9061253b565b91905055508460056000858152602001908152602001600020819055505050505050565b6009602052816000526040600020818154811061192f57600080fd5b90600052602060002001600091509150505481565b60608060606000600960008681526020019081526020016000208054806020026020016040519081016040528092919081815260200182805480156119a857602002820191906000526020600020905b815481526020019060010190808311611994575b505050505090506000815167ffffffffffffffff8111156119cc576119cb6124ae565b5b6040519080825280602002602001820160405280156119fa5781602001602082028036833780820191505090505b5090506000825167ffffffffffffffff811115611a1a57611a196124ae565b5b604051908082528060200260200182016040528015611a485781602001602082028036833780820191505090505b50905060005b8351811015611b045760066000858381518110611a6e57611a6d6124dd565b5b6020026020010151815260200190815260200160002054838281518110611a9857611a976124dd565b5b60200260200101818152505060056000858381518110611abb57611aba6124dd565b5b6020026020010151815260200190815260200160002054828281518110611ae557611ae46124dd565b5b6020026020010181815250508080611afc9061253b565b915050611a4e565b508282829550955095505050509193909250565b60066020528060005260406000206000915090505481565b6000806000806001541115611b8457600091505b600154821015611b83578460036000848152602001908152602001600020600101541415611b70578190505b8180611b7b9061253b565b925050611b44565b5b600360008281526020019081526020016000206005015492507f417661696c61626c650000000000000000000000000000000000000000000000831415611c53577f4e410000000000000000000000000000000000000000000000000000000000006003600083815260200190815260200160002060050181905550600960008581526020019081526020016000208590806001815401808255809150506001900390600052602060002001600090919091909150558360076000878152602001908152602001600020819055505b5050505050565b60056020528060005260406000206000915090505481565b60036020528060005260406000206000915090508060000154908060010154908060020154908060030154908060040154908060050154905086565b60076020528060005260406000206000915090505481565b60026020528060005260406000206000915090508060000154908060010154908060020154908060030154908060040154908060050154908060060154905087565b600a6020528160005260406000208181548110611d2457600080fd5b90600052602060002001600091509150505481565b600081519050919050565b600082825260208201905092915050565b6000819050602082019050919050565b6000819050919050565b611d7881611d65565b82525050565b6000611d8a8383611d6f565b60208301905092915050565b6000602082019050919050565b6000611dae82611d39565b611db88185611d44565b9350611dc383611d55565b8060005b83811015611df4578151611ddb8882611d7e565b9750611de683611d96565b925050600181019050611dc7565b5085935050505092915050565b600081519050919050565b600082825260208201905092915050565b6000819050602082019050919050565b6000819050919050565b611e4081611e2d565b82525050565b6000611e528383611e37565b60208301905092915050565b6000602082019050919050565b6000611e7682611e01565b611e808185611e0c565b9350611e8b83611e1d565b8060005b83811015611ebc578151611ea38882611e46565b9750611eae83611e5e565b925050600181019050611e8f565b5085935050505092915050565b600060e0820190508181036000830152611ee3818a611da3565b90508181036020830152611ef78189611e6b565b90508181036040830152611f0b8188611e6b565b90508181036060830152611f1f8187611e6b565b90508181036080830152611f338186611da3565b905081810360a0830152611f478185611e6b565b905081810360c0830152611f5b8184611e6b565b905098975050505050505050565b600080fd5b611f7781611e2d565b8114611f8257600080fd5b50565b600081359050611f9481611f6e565b92915050565b600060208284031215611fb057611faf611f69565b5b6000611fbe84828501611f85565b91505092915050565b611fd081611d65565b82525050565b6000602082019050611feb6000830184611fc7565b92915050565b600080600080600060a0868803121561200d5761200c611f69565b5b600061201b88828901611f85565b955050602061202c88828901611f85565b945050604061203d88828901611f85565b935050606061204e88828901611f85565b925050608061205f88828901611f85565b9150509295509295909350565b600060c08201905081810360008301526120868189611da3565b9050818103602083015261209a8188611e6b565b905081810360408301526120ae8187611e6b565b905081810360608301526120c28186611e6b565b905081810360808301526120d68185611da3565b905081810360a08301526120ea8184611e6b565b9050979650505050505050565b61210081611d65565b811461210b57600080fd5b50565b60008135905061211d816120f7565b92915050565b600080600080600080600060e0888a03121561214257612141611f69565b5b60006121508a828b01611f85565b97505060206121618a828b01611f85565b96505060406121728a828b01611f85565b95505060606121838a828b01611f85565b94505060806121948a828b0161210e565b93505060a06121a58a828b01611f85565b92505060c06121b68a828b01611f85565b91505092959891949750929550565b600080604083850312156121dc576121db611f69565b5b60006121ea85828601611f85565b92505060206121fb85828601611f85565b9150509250929050565b60008115159050919050565b61221a81612205565b82525050565b60006020820190506122356000830184612211565b92915050565b6000806040838503121561225257612251611f69565b5b600061226085828601611f85565b92505060206122718582860161210e565b9150509250929050565b61228481611e2d565b82525050565b600060208201905061229f600083018461227b565b92915050565b60006080820190506122ba600083018761227b565b6122c7602083018661227b565b6122d4604083018561227b565b6122e1606083018461227b565b95945050505050565b600080600080600060a0868803121561230657612305611f69565b5b600061231488828901611f85565b955050602061232588828901611f85565b945050604061233688828901611f85565b935050606061234788828901611f85565b92505060806123588882890161210e565b9150509295509295909350565b6000606082019050818103600083015261237f8186611e6b565b905081810360208301526123938185611e6b565b905081810360408301526123a78184611e6b565b9050949350505050565b6000602082840312156123c7576123c6611f69565b5b60006123d58482850161210e565b91505092915050565b600060c0820190506123f36000830189611fc7565b612400602083018861227b565b61240d604083018761227b565b61241a606083018661227b565b6124276080830185611fc7565b61243460a083018461227b565b979650505050505050565b600060e082019050612454600083018a611fc7565b612461602083018961227b565b61246e604083018861227b565b61247b606083018761227b565b6124886080830186611fc7565b61249560a083018561227b565b6124a260c083018461227b565b98975050505050505050565b7f4e487b7100000000000000000000000000000000000000000000000000000000600052604160045260246000fd5b7f4e487b7100000000000000000000000000000000000000000000000000000000600052603260045260246000fd5b7f4e487b7100000000000000000000000000000000000000000000000000000000600052601160045260246000fd5b600061254682611d65565b91507fffffffffffffffffffffffffffffffffffffffffffffffffffffffffffffffff8214156125795761257861250c565b5b60018201905091905056fea26469706673582212208fef41e3cb1f0f6d7e73a5c2745263f1415d992041af6eeec59153e06727a2ff64736f6c634300080c0033",
  "immutableReferences": {},
  "source": "pragma solidity ^0.8.12;\n\ncontract product {\n\n    uint256 sellerCount;\n    uint256 productCount;\n\n    struct seller{\n        uint256 sellerId;\n        bytes32 sellerName;\n        bytes32 sellerBrand;\n        bytes32 sellerCode;\n        uint256 sellerNum;\n        bytes32 sellerManager;\n        bytes32 sellerAddress;\n    }\n    mapping(uint=>seller) public sellers;\n\n    struct productItem{\n        uint256 productId;\n        bytes32 productSN;\n        bytes32 productName;\n        bytes32 productBrand;\n        uint256 productPrice;\n        bytes32 productStatus;\n    }\n\n    mapping(uint256=>productItem) public productItems;\n    mapping(bytes32=>uint256) public productMap;\n    mapping(bytes32=>bytes32) public productsManufactured;\n    mapping(bytes32=>bytes32) public productsForSale;\n    mapping(bytes32=>bytes32) public productsSold;\n    mapping(bytes32=>bytes32[]) public productsWithSeller;\n    mapping(bytes32=>bytes32[]) public productsWithConsumer;\n    mapping(bytes32=>bytes32[]) public sellersWithManufacturer;\n\n    // HERB METADATA SECTION\n    struct herbMetadata {\n        bytes32 harvestDate;       // e.g., YYYY-MM-DD\n        bytes32 originLocation;    // e.g., Village, District, Country (truncated to 32 bytes)\n        bytes32 farmId;            // farm/collector id\n        bytes32 certification;     // e.g., Organic, FairWild\n    }\n    mapping(bytes32=>herbMetadata) public productHerbMetadata; // key: productSN\n\n\n    //SELLER SECTION\n\n    function addSeller(bytes32 _manufacturerId, bytes32 _sellerName, bytes32 _sellerBrand, bytes32 _sellerCode,\n    uint256 _sellerNum, bytes32 _sellerManager, bytes32 _sellerAddress) public{\n        sellers[sellerCount] = seller(sellerCount, _sellerName, _sellerBrand, _sellerCode,\n        _sellerNum, _sellerManager, _sellerAddress);\n        sellerCount++;\n\n        sellersWithManufacturer[_manufacturerId].push(_sellerCode);\n    }\n\n\n    function viewSellers () public view returns(uint256[] memory, bytes32[] memory, bytes32[] memory, bytes32[] memory, uint256[] memory, bytes32[] memory, bytes32[] memory) {\n        uint256[] memory ids = new uint256[](sellerCount);\n        bytes32[] memory snames = new bytes32[](sellerCount);\n        bytes32[] memory sbrands = new bytes32[](sellerCount);\n        bytes32[] memory scodes = new bytes32[](sellerCount);\n        uint256[] memory snums = new uint256[](sellerCount);\n        bytes32[] memory smanagers = new bytes32[](sellerCount);\n        bytes32[] memory saddress = new bytes32[](sellerCount);\n        \n        for(uint i=0; i<sellerCount; i++){\n            ids[i] = sellers[i].sellerId;\n            snames[i] = sellers[i].sellerName;\n            sbrands[i] = sellers[i].sellerBrand;\n            scodes[i] = sellers[i].sellerCode;\n            snums[i] = sellers[i].sellerNum;\n            smanagers[i] = sellers[i].sellerManager;\n            saddress[i] = sellers[i].sellerAddress;\n        }\n        return(ids, snames, sbrands, scodes, snums, smanagers, saddress);\n    }\n\n    //PRODUCT SECTION\n\n    function addProduct(bytes32 _manufactuerID, bytes32 _productName, bytes32 _productSN, bytes32 _productBrand,\n    uint256 _productPrice) public{\n        productItems[productCount] = productItem(productCount, _productSN, _productName, _productBrand,\n        _productPrice, \"Available\");\n        productMap[_productSN] = productCount;\n        productCount++;\n        productsManufactured[_productSN] = _manufactuerID;\n    }\n\n    // Set herb metadata for a given product serial number\n    function setHerbMetadata(bytes32 _productSN, bytes32 _harvestDate, bytes32 _originLocation, bytes32 _farmId, bytes32 _certification) public {\n        productHerbMetadata[_productSN] = herbMetadata(_harvestDate, _originLocation, _farmId, _certification);\n    }\n\n    // Get herb metadata for a given product serial number\n    function getHerbMetadata(bytes32 _productSN) public view returns(bytes32, bytes32, bytes32, bytes32) {\n        herbMetadata memory meta = productHerbMetadata[_productSN];\n        return (meta.harvestDate, meta.originLocation, meta.farmId, meta.certification);\n    }\n\n\n    function viewProductItems () public view returns(uint256[] memory, bytes32[] memory, bytes32[] memory, bytes32[] memory, uint256[] memory, bytes32[] memory) {\n        uint256[] memory pids = new uint256[](productCount);\n        bytes32[] memory pSNs = new bytes32[](productCount);\n        bytes32[] memory pnames = new bytes32[](productCount);\n        bytes32[] memory pbrands = new bytes32[](productCount);\n        uint256[] memory pprices = new uint256[](productCount);\n        bytes32[] memory pstatus = new bytes32[](productCount);\n        \n        for(uint i=0; i<productCount; i++){\n            pids[i] = productItems[i].productId;\n            pSNs[i] = productItems[i].productSN;\n            pnames[i] = productItems[i].productName;\n            pbrands[i] = productItems[i].productBrand;\n            pprices[i] = productItems[i].productPrice;\n            pstatus[i] = productItems[i].productStatus;\n        }\n        return(pids, pSNs, pnames, pbrands, pprices, pstatus);\n    }\n\n    //SELL Product\n\n    function manufacturerSellProduct(bytes32 _productSN, bytes32 _sellerCode) public{\n        productsWithSeller[_sellerCode].push(_productSN);\n        productsForSale[_productSN] = _sellerCode;\n\n    }\n\n    function sellerSellProduct(bytes32 _productSN, bytes32 _consumerCode) public{   \n        bytes32 pStatus;\n        uint256 i;\n        uint256 j=0;\n\n        if(productCount>0) {\n            for(i=0;i<productCount;i++) {\n                if(productItems[i].productSN == _productSN) {\n                    j=i;\n                }\n            }\n        }\n\n        pStatus = productItems[j].productStatus;\n        if(pStatus == \"Available\") {\n            productItems[j].productStatus = \"NA\";\n            productsWithConsumer[_consumerCode].push(_productSN);\n            productsSold[_productSN] = _consumerCode;\n        }\n\n\n    }\n\n\n    function queryProductsList(bytes32 _sellerCode) public view returns(uint256[] memory, bytes32[] memory, bytes32[] memory, bytes32[] memory, uint256[] memory, bytes32[] memory){\n        bytes32[] memory productSNs = productsWithSeller[_sellerCode];\n        uint256 k=0;\n\n        uint256[] memory pids = new uint256[](productCount);\n        bytes32[] memory pSNs = new bytes32[](productCount);\n        bytes32[] memory pnames = new bytes32[](productCount);\n        bytes32[] memory pbrands = new bytes32[](productCount);\n        uint256[] memory pprices = new uint256[](productCount);\n        bytes32[] memory pstatus = new bytes32[](productCount);\n\n        \n        for(uint i=0; i<productCount; i++){\n            for(uint j=0; j<productSNs.length; j++){\n                if(productItems[i].productSN==productSNs[j]){\n                    pids[k] = productItems[i].productId;\n                    pSNs[k] = productItems[i].productSN;\n                    pnames[k] = productItems[i].productName;\n                    pbrands[k] = productItems[i].productBrand;\n                    pprices[k] = productItems[i].productPrice;\n                    pstatus[k] = productItems[i].productStatus;\n                    k++;\n                }\n            }\n        }\n        return(pids, pSNs, pnames, pbrands, pprices, pstatus);\n    }\n\n    function querySellersList (bytes32 _manufacturerCode) public view returns(uint256[] memory, bytes32[] memory, bytes32[] memory, bytes32[] memory, uint256[] memory, bytes32[] memory, bytes32[] memory) {\n        bytes32[] memory sellerCodes = sellersWithManufacturer[_manufacturerCode];\n        uint256 k=0;\n        uint256[] memory ids = new uint256[](sellerCount);\n        bytes32[] memory snames = new bytes32[](sellerCount);\n        bytes32[] memory sbrands = new bytes32[](sellerCount);\n        bytes32[] memory scodes = new bytes32[](sellerCount);\n        uint256[] memory snums = new uint256[](sellerCount);\n        bytes32[] memory smanagers = new bytes32[](sellerCount);\n        bytes32[] memory saddress = new bytes32[](sellerCount);\n        \n        for(uint i=0; i<sellerCount; i++){\n            for(uint j=0; j<sellerCodes.length; j++){\n                if(sellers[i].sellerCode==sellerCodes[j]){\n                    ids[k] = sellers[i].sellerId;\n                    snames[k] = sellers[i].sellerName;\n                    sbrands[k] = sellers[i].sellerBrand;\n                    scodes[k] = sellers[i].sellerCode;\n                    snums[k] = sellers[i].sellerNum;\n                    smanagers[k] = sellers[i].sellerManager;\n                    saddress[k] = sellers[i].sellerAddress;\n                    k++;\n                    break;\n               }\n            }\n        }\n\n        return(ids, snames, sbrands, scodes, snums, smanagers, saddress);\n    }\n\n    function getPurchaseHistory(bytes32 _consumerCode) public view returns (bytes32[] memory, bytes32[] memory, bytes32[] memory){\n        bytes32[] memory productSNs = productsWithConsumer[_consumerCode];\n        bytes32[] memory sellerCodes = new bytes32[](productSNs.length);\n        bytes32[] memory manufacturerCodes = new bytes32[](productSNs.length);\n        for(uint i=0; i<productSNs.length; i++){\n            sellerCodes[i] = productsForSale[productSNs[i]];\n            manufacturerCodes[i] = productsManufactured[productSNs[i]];\n        }\n        return (productSNs, sellerCodes, manufacturerCodes);\n    }\n\n    //Verify\n\n    function verifyProduct(bytes32 _productSN, bytes32 _consumerCode) public view returns(bool){\n        if(productsSold[_productSN] == _consumerCode){\n            return true;\n        }\n        else{\n            return false;\n        }\n    }\n}",
  "sourcePath": "C:\\Users\\surya\\Downloads\\FraudBlock-main\\contracts\\product.sol",
  "compiler": {
    "name": "solc",
    "version": "0.8.12+commit.f00d7308.Emscripten.clang"
  },
  "schemaVersion": "3.4.16",
  "updatedAt": "2025-09-18T14:46:28.672Z",
  "networkType": "ethereum",
  "devdoc": {
    "kind": "dev",
    "methods": {},
    "version": 1
  },
  "userdoc": {
    "kind": "user",
    "methods": {},
    "version": 1
  }
}